:100000000C942A000C943F000C943F000C943F0089
:100010000C943F000C943F000C943F000C943F0064
:100020000C943F000C943F000C943F000C943F0054
:100030000C943F000C943F000C943F000C943F0044
:100040000C943F000C943F000C943F000C943F0034
:100050000C943F0011241FBECFE5D8E0DEBFCDBF1A
:1000600010E0A0E6B0E0E8E8F0E102C005900D92F3
:10007000AC3BB107D9F70E9428040C9442080C94B9
:100080000000442319F04130C9F10895813091F006
:1000900028F08230D9F0833029F108952AB381E025
:1000A00090E002C0880F991F6A95E2F7809582233D
:1000B0008ABB089527B381E090E002C0880F991FA2
:1000C0006A95E2F78095822387BB089524B381E087
:1000D00090E002C0880F991F6A95E2F7809582230D
:1000E00084BB089521B381E090E002C0880F991F7E
:1000F0006A95E2F78095822381BB0895813089F06B
:1001000028F08230C9F0833011F108952AB381E0DC
:1001100090E002C0880F991F6A95E2F7822B8ABB94
:10012000089527B381E090E002C0880F991F6A9577
:10013000E2F7822B87BB089524B381E090E002C0F0
:10014000880F991F6A95E2F7822B84BB089521B32B
:1001500081E090E002C0880F991F6A95E2F7822B38
:1001600081BB0895442319F04130C9F108958130CD
:1001700091F028F08230D9F0833029F108952BB323
:1001800081E090E002C0880F991F6A95E2F78095A0
:1001900082238BBB089528B381E090E002C0880FD2
:1001A000991F6A95E2F78095822388BB089525B34D
:1001B00081E090E002C0880F991F6A95E2F7809570
:1001C000822385BB089522B381E090E002C0880FAE
:1001D000991F6A95E2F78095822382BB089581304A
:1001E00089F028F08230C9F0833011F108952BB3E3
:1001F00081E090E002C0880F991F6A95E2F7822B98
:100200008BBB089528B381E090E002C0880F991F4E
:100210006A95E2F7822B88BB089525B381E090E0D0
:1002200002C0880F991F6A95E2F7822B85BB08955B
:1002300022B381E090E002C0880F991F6A95E2F72F
:10024000822B82BB08954115510599F1813089F0C7
:1002500028F08230C9F0833011F1089589B390E01D
:1002600002C0959587956A95E2F78170FA018083BF
:10027000089586B390E002C0959587956A95E2F758
:100280008170FA018083089583B390E002C0959550
:1002900087956A95E2F78170FA018083089580B3AB
:1002A00090E002C0959587956A95E2F78170FA0112
:1002B00080830895813089F028F08230C9F083303E
:1002C00011F108952BB381E090E002C0880F991FCF
:1002D0006A95E2F7822B8BBB089528B381E090E00A
:1002E00002C0880F991F6A95E2F7822B88BB089598
:1002F00025B381E090E002C0880F991F6A95E2F76C
:10030000822B85BB089522B381E090E002C0880F64
:10031000991F6A95E2F7822B82BB089540E060E066
:1003200080E00E94410040E061E080E00E944100E6
:1003300040E062E080E00E94410040E063E080E055
:100340000E94410041E060E083E00E94410041E002
:1003500061E083E00E94410041E062E083E00E94AE
:10036000410060E080E00E945A0161E080E00E946C
:100370005A0162E080E00E945A0163E080E00E943E
:100380005A0141E060E083E00E94B20041E061E098
:1003900083E00E94B20041E062E083E00E94B2008C
:1003A0000895EF92FF920F931F93CF93DF93CDB7F2
:1003B000DEB72D970FB6F894DEBF0FBECDBF009706
:1003C00009F4AFC07C018CE0E0E6F0E0DE011196BC
:1003D00001900D928A95E1F78FEFF701808310E08D
:1003E0009DC0113051F018F0123071F00BC040E098
:1003F00060E083E00E94B20005C040E061E083E07D
:100400000E94B20000E06FC040E062E083E00E9422
:10041000B200F8CF013071F028F0023099F00330CB
:10042000C9F01FC0AE01435F5F4F60E080E00E94F3
:10043000230117C0AE01435F5F4F61E080E00E947F
:1004400023010FC0AE01435F5F4F62E080E00E9476
:10045000230107C0AE01435F5F4F63E080E00E946D
:1004600023018D8581113EC027C0013071F028F035
:10047000023099F00330C9F01FC0AE01435F5F4FF7
:1004800060E080E00E94230117C0AE01435F5F4F30
:1004900061E080E00E9423010FC0AE01435F5F4F27
:1004A00062E080E00E94230107C0AE01435F5F4F1E
:1004B00063E080E00E9423018D858823B1F2202F24
:1004C00030E0F901EE0FFF1FE20FF31F81E090E033
:1004D0008C0F9D1FE80FF91FE10FF11D8081F701BF
:1004E00080831FC00F5F043008F494CF113051F0A7
:1004F00018F0123069F011C041E060E083E00E9422
:10050000B2000BC041E061E083E00E94B20005C090
:1005100041E062E083E00E94B2001F5F133008F404
:1005200060CF2D960FB6F894DEBF0FBECDBFDF9122
:10053000CF911F910F91FF90EF900895CF93C82F07
:1005400084FF06C041E064E080E00E94B20005C084
:1005500040E064E080E00E94B200C5FF06C041E0D8
:1005600065E080E00E94B20005C040E065E080E008
:100570000E94B200C6FF06C041E066E080E00E9433
:10058000B20005C040E066E080E00E94B200CC23EB
:1005900034F441E067E080E00E94B20005C040E032
:1005A00067E080E00E94B200CF91089541E062E0F0
:1005B00081E00E94B2008FE99FE00197F1F700C04F
:1005C000000040E062E081E00E94B20008950F93D5
:1005D0001F93CF93C82F41E061E081E00E94B200F9
:1005E00080E1C89F800111248C2F807F0E949E0291
:1005F0000E94D602802F0E949E020E94D602CF91B6
:100600001F910F9108950F931F93CF93C82F40E030
:1006100061E081E00E94B20080E1C89F8001112466
:100620008C2F807F0E949E020E94D602802F0E9403
:100630009E020E94D602CF911F910F91089541E032
:1006400061E081E00E94410041E062E081E00E94BF
:10065000410041E064E080E00E94410041E065E04B
:1006600080E00E94410041E066E080E00E9441009D
:1006700041E067E080E00E9441002FEF83EF91E0CE
:10068000215080409040E1F700C0000040E061E070
:1006900081E00E94B20040E064E080E00E94B2008D
:1006A00041E065E080E00E94B20040E066E080E06A
:1006B0000E94B20040E067E080E00E94B2000E9429
:1006C000D60288E20E94030320EF2A95F1F78FE01B
:1006D0000E94030380EF8A95F1F781E00E940303F3
:1006E0008FE39FE10197F1F700C0000086E00E94D0
:1006F000030308950F931F93CF93009729F40CC021
:100700000E94E702CF5F02C08C01C0E0F801EC0F4D
:10071000F11D80818111F4CFCF911F910F91089528
:1007200081E00E9403038FE39FE10197F1F700C08E
:1007300000000895813019F0823049F0089580E872
:10074000860F0E94030380EF8A95F1F7089580ECED
:10075000860F0E94030380EF8A95F1F70895CF92E8
:10076000DF92EF92FF921F93CF93DF93CDB7DEB767
:100770002B970FB6F894DEBF0FBECDBF6B017C0187
:10078000611571058105910521F480E30E94E7025E
:1007900036C099235CF48DE20E94E702F094E09465
:1007A000D094C094C11CD11CE11CF11C10E015C0F8
:1007B000C701B6012AE030E040E050E00E940108A5
:1007C000E1E0F0E0EC0FFD1FE10FF11D605D6083E3
:1007D000C22ED32EE42EF52E1F5F1C141D041E0402
:1007E0001F0434F30AC01150E1E0F0E0EC0FFD1FEC
:1007F000E10FF11D80810E94E7021111F4CF2B96C9
:100800000FB6F894DEBF0FBECDBFDF91CF911F9121
:10081000FF90EF90DF90CF90089541E00E9441005B
:100820000895442329F0413031F40E94B200089524
:1008300040E00E94B2000895442331F0413039F481
:1008400040E00E94B200089541E00E94B200089585
:10085000CF93DF93CDB7DEB729970FB6F894DEBFFD
:100860000FBECDBF0E948E010E941F030E94A405EF
:1008700060E082E00E940D0461E082E00E940D04CD
:1008800087E3898380E38A8388E38B8385E38C8392
:100890000E94900360E081E00E949A038CE690E061
:1008A0000E947A0360E082E00E949A0310E0CE0189
:1008B00009960E94D10189858F3F39F0833279F002
:1008C0000E94E7021F5F173250F42FEF30E782E0FB
:1008D000215030408040E1F700C00000E8CF0E9486
:1008E000900360E081E00E949A038DE790E00E940F
:1008F0007A0360E082E00E949A03E12C87C005E061
:1009000010E00C0F1D1F0F0D111DC8010E94D10119
:10091000F80180818F3F21F08AE20E94E702F39480
:10092000FFEF23EC39E0F15020403040E1F700C008
:10093000000001C0F12C83E08F1508F720E013C000
:10094000822F90E0E5E0F0E0EC0FFD1FE80FF91FCB
:100950003081E1E0F0E0EC0FFD1FE80FF91F80812E
:10096000381305C02F5F243058F381E001C080E0C8
:10097000882331F10E94900360E081E00E949A0395
:100980008DE890E00E947A0341E061E082E00E94FD
:10099000110484EB90E00E94AC059FEFE3E2F4EFDA
:1009A0009150E040F040E1F700C0000041E061E01C
:1009B00082E00E941C048AE590E00E94AC052AC0F7
:1009C0000E94900360E081E00E949A0363E070E07F
:1009D0006E197109072E000C880B990B0E94AF034A
:1009E0008DE990E00E947A0360E082E00E949A0321
:1009F00080E009C0E5E0F0E0EC0FFD1FE80FF11D1D
:100A00009FEF90838F5F8430A8F3E39423E02E154B
:100A100008F090CF33E03E15E8F40E94900360E0C8
:100A200081E00E949A038AEA90E00E947A0341E002
:100A300060E082E00E9411048FEF93E2E4EF8150C6
:100A40009040E040E1F700C0000041E060E082E05B
:100A50000E941C04FAEA26EE36E981E0F1502040BB
:100A600030408040D9F700003ACF8EB580618EBD0E
:100A70008EB588608EBD8FB582608FBD8FB58E7F3D
:100A80008FBD8FB580688FBD8FB58F7B8FBD08956B
:100A9000CF92DF92EF92FF926A017B01682F70E0A4
:100AA00080E090E00E94E4069B01AC0160E074E20B
:100AB00084E799E40E94410620E030E040E85EE3EC
:100AC0000E94940720E030E040E85FE30E94CF05F9
:100AD0000E94B30677BD66BD20E030E048EC52E4EA
:100AE000C701B6010E943C06181604F120E030E070
:100AF00048EC52E4C701B6010E9441066B017C013B
:100B000066B577B56F5F7F4F80E090E00E94E206A8
:100B1000A70196010E94940720E030E040E85FE3DF
:100B20000E94CF050E94B3067BBD6ABD8EB58B7F48
:100B30008EBD8EB582608EBD8EB581608EBDFF90FC
:100B4000EF90DF90CF90089541E065E083E00E9450
:100B500041000E9435050895BC0180E090E00E94AC
:100B6000E20620E030E044E353E40E94410620E046
:100B700030E040E85FE30E94D00520E030E040EA4A
:100B800051E40E94410620E030E048EC52E40E942B
:100B90009407AB01BC0182E30E94480508955058B8
:100BA000BB27AA270E94E7050C945A070E944C070E
:100BB00038F00E94530720F039F49F3F19F426F4CF
:100BC0000C9449070EF4E095E7FB0C944307E92FDA
:100BD0000E946B0758F3BA176207730784079507DB
:100BE00020F079F4A6F50C948D070EF4E0950B2E09
:100BF000BA2FA02D0B01B90190010C01CA01A0016F
:100C00001124FF27591B99F0593F50F4503E68F1C9
:100C10001A16F040A22F232F342F4427585FF3CF0A
:100C2000469537952795A795F0405395C9F77EF4DB
:100C30001F16BA0B620B730B840BBAF09150A1F024
:100C4000FF0FBB1F661F771F881FC2F70EC0BA0FAA
:100C5000621F731F841F48F4879577956795B79532
:100C6000F7959E3F08F0B0CF9395880F08F099272D
:100C7000EE0F9795879508950E941F0708F481E06D
:100C800008950E9455060C945A070E94530758F085
:100C90000E944C0740F029F45F3F29F00C94430771
:100CA00051110C948E070C9449070E946B0768F34E
:100CB0009923B1F3552391F3951B550BBB27AA2715
:100CC00062177307840738F09F5F5F4F220F331F4F
:100CD000441FAA1FA9F335D00E2E3AF0E0E832D017
:100CE00091505040E695001CCAF72BD0FE2F29D01A
:100CF000660F771F881FBB1F261737074807AB07EC
:100D0000B0E809F0BB0B802DBF01FF2793585F4F60
:100D10003AF09E3F510578F00C9443070C948E07EF
:100D20005F3FE4F3983ED4F3869577956795B79542
:100D3000F7959F5FC9F7880F911D9695879597F94D
:100D40000895E1E0660F771F881FBB1F62177307C6
:100D50008407BA0720F0621B730B840BBA0BEE1FDB
:100D600088F7E09508950E94730788F09F5798F0E0
:100D7000B92F9927B751B0F0E1F0660F771F881FA0
:100D8000991F1AF0BA95C9F714C0B13091F00E94BA
:100D90008D07B1E008950C948D07672F782F882771
:100DA000B85F39F0B93FCCF3869577956795B395E1
:100DB000D9F73EF490958095709561957F4F8F4F50
:100DC0009F4F0895E89409C097FB3EF49095809555
:100DD000709561957F4F8F4F9F4F9923A9F0F92F01
:100DE00096E9BB279395F695879577956795B7957F
:100DF000F111F8CFFAF4BB0F11F460FF1BC06F5F65
:100E00007F4F8F4F9F4F16C0882311F096E911C076
:100E1000772321F09EE8872F762F05C0662371F097
:100E200096E8862F70E060E02AF09A95660F771FAB
:100E3000881FDAF7880F9695879597F90895990F87
:100E40000008550FAA0BE0E8FEEF16161706E80794
:100E5000F907C0F012161306E407F50798F0621BB5
:100E6000730B840B950B39F40A2661F0232B242B8A
:100E7000252B21F408950A2609F4A140A6958FEFA9
:100E8000811D811D089597F99F6780E870E060E0FB
:100E900008959FEF80EC089500240A941616170613
:100EA00018060906089500240A941216130614065B
:100EB00005060895092E0394000C11F4882352F0BE
:100EC000BB0F40F4BF2B11F460FF04C06F5F7F4F76
:100ED0008F4F9F4F089557FD9058440F551F59F05D
:100EE0005F3F71F04795880F97FB991F61F09F3F17
:100EF00079F087950895121613061406551FF2CF40
:100F00004695F1DF08C0161617061806991FF1CF8F
:100F100086957105610508940895E894BB276627B6
:100F20007727CB0197F908950E94A7070C945A07D9
:100F30000E944C0738F00E94530720F0952311F0CF
:100F40000C9443070C94490711240C948E070E94BB
:100F50006B0770F3959FC1F3950F50E0551F629F8B
:100F6000F001729FBB27F00DB11D639FAA27F00D02
:100F7000B11DAA1F649F6627B00DA11D661F829F29
:100F80002227B00DA11D621F739FB00DA11D621F0E
:100F9000839FA00D611D221F749F3327A00D611D2B
:100FA000231F849F600D211D822F762F6A2F11240D
:100FB0009F5750409AF0F1F088234AF0EE0FFF1F40
:100FC000BB1F661F771F881F91505040A9F79E3F97
:100FD000510580F00C9443070C948E075F3FE4F3B7
:100FE000983ED4F3869577956795B795F795E795ED
:100FF0009F5FC1F7FE2B880F911D9695879597F9F6
:101000000895052E97FB1EF400940E94180857FDC2
:1010100007D00E94200807FC03D04EF40C94180857
:1010200050954095309521953F4F4F4F5F4F089514
:1010300090958095709561957F4F8F4F9F4F089544
:10104000A1E21A2EAA1BBB1BFD010DC0AA1FBB1FCC
:10105000EE1FFF1FA217B307E407F50720F0A21B3E
:10106000B30BE40BF50B661F771F881F991F1A94AB
:1010700069F760957095809590959B01AC01BD01D5
:08108000CF010895F894FFCFA1
:101088003132333435363738392A3023456E746572
:101098007220557365726E616D653A2000456E74F5
:1010A80065722050617373776F72643A00204163F0
:1010B80063657373204772616E74656400205472AF
:1010C80069616C73204C6566740020534543555222
:0C10D80049545920414C4552542100005D
:00000001FF
