S01A000047726164756174696F6E2D50726F6A6563742E73726563F8
S11300000C942A000C948A0D0C94B30D0C944700A4
S11300100C9447000C9447000C9447000C94470040
S11300200C9447000C947E0E0C9447000C94550ECF
S11300300C9447000C9447000C9447000C94470020
S11300400C9447000C9447000C9447000C94470010
S11300500C94470011241FBECFE5D8E0DEBFCDBF0E
S113006015E0A0E6B0E0EEE4F3E202C005900D92E4
S1130070A432B107D9F725E0A4E2B5E001C01D928E
S1130080A835B207E1F70E94660F0C94A5110C94F1
S113009000000E94610F08950E94830B60E081E0DC
S11300A00E948D0B8EE690E00E94E90A60E082E0F7
S11300B00E948D0B8BE790E00E94E90A87E00E9482
S11300C0560FFFCF809324050E94A40A2FEF85EAE0
S11300D09EE0215080409040E1F700C0000060E0C5
S11300E082E00E948D0B8EEF91E00E94E90A10924B
S11300F0250582E080932B050895E091250591E084
S11301009E0F90932505F0E0EA5DFA4F80838AE222
S11301100E94A40A2FEF85EA9EE02150804090407F
S1130120E1F700C0000080912505843039F546E2EE
S113013055E06091240580E00E94A705882379F0AA
S113014081E00E94FE0464EF71E086E890E00E9482
S11301506C0883E080932B050E94B307089568EE32
S113016073E085E990E00E946C080E94830B89EE9D
S113017092E00E94E90A81E080932B05089583337D
S113018031F483E080932B050E94B30708958133F3
S113019011F40E94C2070895813331F484E08093FE
S11301A02B050E94C2070895823349F410922A0550
S11301B085E080932B0580E00E942808089583330E
S11301C091F480E00E94FE0464EF71E083EA90E021
S11301D00E946C080E94830B89EE92E00E94E90A57
S11301E081E080932B050895CF93C82F813331F498
S11301F083E080932B050E94B30741C0843351F4FC
S113020080912A05882331F0815080932A050E9429
S1130210280835C0C63351F480912A05853030F45E
S11302208F5F80932A050E94280829C080912A059F
S1130230853041F4C23331F486E080932B050E946B
S11302405D081DC08EEC8C0F8230C8F40E94F5044A
S113025081110BC068EE73E08EEA90E00E946C0896
S113026080912A050E9428080AC061E0C23309F07F
S113027060E080912A0540E08F5F0E942805CF91BD
S11302800895CF93813341F485E080932B058091C9
S11302902A050E94280829C0833351F018F48233B8
S11302A069F004C0843331F0853331F0CFEF07C0F7
S11302B0C0E405C0C0E803C0C0EC01C0C0E0CF3F4B
S11302C0A1F00E94F504811109C068EE73E08EEA82
S11302D090E00E946C080E945D0807C04C2F61E00A
S11302E086E00E9428050E945D08CF9108959091B0
S11302F02B05933091F028F4913049F0923051F06D
S11303000895953081F060F0963081F008950E9450
S1130310620008950E947D0008950E94CC00089513
S11303200E94BF0008950E94F40008950E944101B4
S113033008950E94430A0E9416090E9474050E94AF
S113034007050E947D070E94AC040E94490080E0DA
S11303500E94FE048FEB90E00E94E90A2FEF89E6E9
S113036098E1215080409040E1F700C000000E94D5
S1130370830B81E080932B0589EE92E00E94E90AC9
S11303800895CF93DF931F92CDB7DEB70E94A407E1
S11303900E94BA0480912B05843011F40E94F00766
S11303A08FEF8983CE0101960E94440989818F3F92
S11303B059F00E9477012FEF84E39CE021508040A4
S11303C09040E1F700C000000F90DF91CF910895B5
S11303D0DC01FB0102C0119631969C91992319F01E
S11303E080819817C1F3208181E0921301C080E0DD
S11303F00895FC0106C09081891308C031966F5F8F
S11304007F4FDB018C918111F6CF089581E008952F
S113041081ED90E00E94380F89EE90E00E94380F41
S113042087E191E00E94380F80913205813021F4F8
S113043086E391E00E94380F8BE591E00E94380F2B
S113044008958DE691E00E94380F87E891E00E94BC
S1130450380F809132058130C1F48AE991E00E941D
S1130460380F88EA91E00E94380F80913105882383
S113047041F089EB91E00E94380F8AEC91E00E94F0
S1130480380F8AED91E00E94380F8AEE91E00E94C5
S1130490380F86EF91E00E94380F089594E040E011
S11304A008C0440F242F220F220F420F480F40533D
S11304B09F5FE92FF0E0E65CFA4F808120ED280F82
S11304C02A3078F3453608F044E661E086E00E947D
S11304D0280508950F931F93CF93DF931F92CDB7F1
S11304E0DEB780913805813061F480913A058093BC
S11304F037058CEF91E00E94380F82E08093380535
S113050025C28230E1F50CC0822F90E0FC01E65C4C
S1130510FA4F3081FC01ED5CFA4F30832F5F01C04C
S113052020E0243088F343E355E06091370581E00F
S11305300E94A705809332058823C9F085E092E0E4
S11305400E94380F80913205813039F487E192E0BE
S11305500E94380F1092600004C085E292E00E946D
S1130560380F83E0809338050E942102EFC182E3B3
S113057092E00E94380F81E080933805E7C184300F
S1130580D1F480913A05809330050E942C0788238A
S113059051F087E492E00E94380F83E0809338059D
S11305A00E942102D3C185E692E00E94380F85E0C3
S11305B080933805CBC1853001F50CC0822F90E0C3
S11305C0FC01E65CFA4F3081FC01E45DFA4F3083B4
S11305D02F5F01C020E0243088F36CE275E0809145
S11305E030050E94680687E892E00E94380F83E095
S11305F0809338050E942102A9C1863071F480914C
S11306003A050E94B70684EA92E00E94380F83E01C
S1130610809338050E94210299C1833009F096C164
S113062063EC72E08AE395E00E94E801882341F0DC
S113063065E075E08AE395E00E94E801811103C05A
S11306400E940802BEC061ED72E08AE395E00E9458
S1130650E801882341F068ED72E08AE395E00E94A6
S1130660E80181110AC01092320581E080933805B7
S11306708AED92E00E94380F69C180913205813081
S113068009F09FC06EEE72E08AE395E00E94E801F3
S1130690882341F068E075E08AE395E00E94E80170
S11306A0811108C087EF92E00E94380F84E08093A4
S11306B038054CC16DE073E08AE395E00E94E801DF
S11306C0882341F06BE075E08AE395E00E94E8013D
S11306D0811108C089E193E00E94380F86E080937D
S11306E0380534C165E373E08AE395E00E94E801CC
S11306F0882341F06EE075E08AE395E00E94E8010A
S113070081110CC080913105882341F081E08093F0
S1130710600081E493E00E94380F53C06CE573E0FD
S11307208AE395E00E94E801882341F061E175E0E5
S11307308AE395E00E94E80181110BC080913105A4
S1130740882339F01092600087E693E00E94380F06
S113075038C060E873E08AE395E00E94E8018823EA
S113076041F06BE873E08AE395E00E94E8018111AF
S113077028C08DE893E00E94380F10E000E015C017
S1130780BE016F5F7F4F812F0E94F806882361F0BE
S11307908AEA93E00E94380F89810E94340F82E62E
S11307A092E00E94380F01E01F5F153048F30111F9
S11307B004C081EB93E00E94380F83EC93E00E9425
S11307C0380F6EED73E08AE395E00E94E801811131
S11307D006C040E061E081E00E942805B1C064EEFB
S11307E073E08AE395E00E94E801811106C040E0CD
S11307F060E081E00E942805A3C06BEE73E08AE309
S113080095E00E94E801811106C040E061E082E0C9
S11308100E94280595C061EF73E08AE395E00E9489
S1130820E801811106C040E060E082E00E942805F2
S113083087C068EF73E08AE395E00E94E8018111C4
S113084006C040E061E083E00E94280579C06EEFB5
S113085073E08AE395E00E94E801811106C040E05C
S113086060E083E00E9428056BC065E074E08AE3E1
S113087095E00E94E801811106C040E061E084E057
S11308800E9428055DC06BE074E08AE395E00E9455
S1130890E801811106C040E060E084E00E94280580
S11308A04FC062E174E08AE395E00E94E80181119F
S11308B006C040E061E085E00E94280541C068E18F
S11308C074E08AE395E00E94E801811106C040E0EB
S11308D060E085E00E94280533C06FE174E08AE39C
S11308E095E00E94E80181110CC0809132058130AD
S11308F019F40E945A0524C089E294E00E94380F3A
S11309001FC068E474E08AE395E00E94E801811165
S11309100DC080913205813021F480E00E945A0597
S11309200FC089E294E00E94380F0AC063E574E0C6
S11309308AE395E00E94F901811102C00E944E02EF
S113094080913805833011F40E9421020F90DF91C9
S1130950CF911F910F9108950E94220F88E594E092
S11309600E94380F85E794E00E94380F81E080935D
S113097038050895CF93DF931F92CDB7DEB72BC010
S11309808981883041F490913905992321F091505F
S1130990909339051DC08D3011F08A3069F480912F
S11309A03905E82FF0E0E65CFA4F108281110E94CD
S11309B06A02109239050CC090913905933140F4C4
S11309C0E92FF0E0E65CFA4F80839F5F909339054E
S11309D089810E94340FCE0101960E944B0F811130
S11309E0CFCF0F90DF91CF91089580913205813060
S11309F019F480916000089581E008958093310591
S1130A0080913805833011F40E942102089560E03A
S1130A1081E00E94A20B64E081E00E94A20B65E0E9
S1130A2081E00E94A20B66E081E00E94A20B67E0D5
S1130A3081E00E94A20B41E063E081E00E94290C66
S1130A400E94DC0D0E94C00B80E00E94890808957A
S1130A50863061F4613029F463E0842F0E94E90D4B
S1130A60089563E080E00E94E90D0895833069F001
S1130A7028F4813041F0823071F00895843039F0E7
S1130A80853039F0089580E007C085E005C086E030
S1130A9003C087E001C084E0613031F440E0682F96
S1130AA081E00E94A60B089540E0682F81E00E9437
S1130AB0B30B0895813021F484EB0E94D80B089580
S1130AC08AE50E94D80B089580934E05813029F45D
S1130AD060E080E00E94AE08089580E00E94F10882
S1130AE0089580914E050895CF93DF931F92CDB75B
S1130AF0DEB70E94A70EBE016F5F7F4F80E090E0DB
S1130B000E94640D89818130F1F061E080E090E021
S1130B100E94460D61E381E090E00E94460D61E38E
S1130B2082E090E00E94460D62E383E090E00E9440
S1130B30460D63E384E090E00E94460D64E385E0A3
S1130B4090E00E94460D0F90DF91CF9108957F921F
S1130B508F929F92AF92BF92CF92DF92EF92FF92C9
S1130B600F931F93CF93DF9300D000D000D0CDB765
S1130B70DEB7C62E7A01813051F4BE016F5F7F4F1C
S1130B8080E090E00E94640D1981113011F0D12CA5
S1130B907AC0BE016E5F7F4F81E090E00E94640DD9
S1130BA08A818C11F4CF1AC0A02EB12C0F2EF3E041
S1130BB08F2E912CF02D8C0E9D1E8A0C9B1CB40143
S1130BC0C50102960E94640DF4019081F701EA0DBB
S1130BD0FB1D8081981307C00F5F01C000E0043043
S1130BE018F381E001C080E0882389F210924F0558
S1130BF05AC00D2D10E0C801880F991F080F191F46
S1130C00000F111F005F1F4F5801BE016F5F7F4F20
S1130C10C8010E94640D89818130A1F5BE016E5F17
S1130C207F4FC80101960E94640D8A81C8122AC0B0
S1130C301CC0072D10E0C501800F911F0F2EF3E09B
S1130C408F2E912CF02D8C0E9D1E800E911EB401C2
S1130C5002960E94640DF4019081F701E00FF11FE8
S1130C608081981308C0739401C0712CF3E0F715C8
S1130C7000F781E001C080E0882321F010924F0545
S1130C8012E011C0D39484E08D1508F0B2CF8091A6
S1130C904F058F5F80934F05833020F00E944C00F6
S1130CA010E001C010E0812F26960FB6F894DEBF45
S1130CB00FBECDBFDF91CF911F910F91FF90EF90A9
S1130CC0DF90CF90BF90AF909F908F907F900895CA
S1130CD0AF92BF92CF92DF92EF92FF921F93CF9386
S1130CE0DF931F92CDB7DEB7E82E5B0110E032C070
S1130CF0812F90E09C01220F331F820F931F880FD6
S1130D00991F40966C01BE016F5F7F4F0E94640D76
S1130D1089818130F1F061E0C6010E94460D6E2D9B
S1130D20C60101960E94460DE12CF12C0DC0F5017F
S1130D30EE0DFF1DC6018E0D9F1D608102960E945F
S1130D40460D8FEFE81AF80A84E0E816F1047CF304
S1130D5003C01F5F153060F20F90DF91CF911F9198
S1130D60FF90EF90DF90CF90BF90AF900895CF9217
S1130D70DF92EF92FF920F931F93CF93DF9300D0F4
S1130D80CDB7DEB7C82EF12C25C00F2D10E0C80159
S1130D90880F991F080F191F000F111F005F1F4FA5
S1130DA0BE016F5F7F4FC8010E94640D898181304D
S1130DB081F4BE016E5F7F4FC80101960E94640DED
S1130DC08A818C1106C060E0802F912F0E94460D0D
S1130DD004C0F39484E08F15C0F60F900F90DF9158
S1130DE0CF911F910F91FF90EF90DF90CF900895D6
S1130DF0DF92EF92FF920F931F93CF93DF931F9293
S1130E00CDB7DEB78530D8F47B0190E08C01000FBC
S1130E10111F080F191F000F111F005F1F4FBE0184
S1130E206F5F7F4FC8010E94640DD98081E0D812A2
S1130E3008C0B701C80101960E94640D03C0D12CFB
S1130E4001C0D12C8D2D0F90DF91CF911F910F9167
S1130E50FF90EF90DF900895DF92EF92FF920F934F
S1130E601F93CF93DF9300D0CDB7DEB7D82EBE014A
S1130E706F5F7F4F80E090E00E94640DE98081E025
S1130E80E8120AC0BE016E5F7F4F81E090E00E94CD
S1130E90640D8A818D1531F1F12C20C08F2D90E0E5
S1130EA08C01000F111F080F191F000F111F005F85
S1130EB01F4FBE016F5F7F4FC8010E94640DE98020
S1130EC081E0E8120AC0BE016E5F7F4FC80101963F
S1130ED00E94640D8A81D81629F0F39484E08F155A
S1130EE0E8F6E12C8E2D0F900F90DF91CF911F919A
S1130EF00F91FF90EF90DF90089581E00E94050C20
S1130F000895CF93DF9300D0CDB7DEB71A8219824C
S1130F10BE016F5F7F4F80E00E94120C29813A81ED
S1130F20A4EFB1E00E949611DC01CB01072E7AE018
S1130F30B695A795979587957A95D1F7702D0F90CB
S1130F400F90DF91CF9108950E9481078D31910513
S1130F5020F081E00E9464050895459718F480E02C
S1130F600E94640508950E94830B87E894E00E9420
S1130F70E90A60E082E00E948D0B80E994E00E941F
S1130F80E90A08950E94830B0E94810790936300ED
S1130F90809362000E9471058093610081EA94E06D
S1130FA00E94E90A809162000E94FC0A87EA94E0A8
S1130FB00E94E90A80916100813029F48EEA94E06C
S1130FC00E94E90A04C087EE93E00E94E90A60E007
S1130FD082E00E948D0B82EB94E00E94E90A08955E
S1130FE01F93CF93DF930E948107EC010E94710548
S1130FF0182F8091620090916300C817D90721F4DB
S113100080916100181701F165E081E00E948D0B69
S11310108C2F0E94FC0A83EC94E00E94E90A6DE0A4
S113102081E00E948D0B113029F48EEA94E00E9435
S1131030E90A04C087EE93E00E94E90AD0936300B2
S1131040C093620010936100DF91CF911F910895C6
S1131050CF93C82F0E94830BEC2FF0E0EE0FFF1FFD
S1131060E95EFA4F808191810E94E90AC53029F432
S113107086EC94E00E94E90A04C08EEC94E00E949D
S1131080E90A60E082E00E948D0B8CED94E00E94FE
S1131090E90ACC2339F06EE082E00E948D0B8CE3E8
S11310A00E94A40AC53038F46FE082E00E948D0BE0
S11310B08EE30E94A40ACF9108950E94830B85EECB
S11310C094E00E94E90A60E082E00E948D0B83EFC5
S11310D094E00E94E90A08950F931F93CF93DF933E
S11310E08C01EB010E94830BC8010E94E90A80E095
S11310F090E007C0EFE9FFE03197F1F700C000008E
S113110001968C179D07B0F3DF91CF911F910F913A
S11311100895882319F0813089F0089541E063E04F
S113112082E00E94290C41E064E082E00E94290CE4
S113113041E065E082E00E94290C089541E065E009
S113114082E00E94290C41E066E082E00E94290CC2
S113115041E064E083E00E94290C0895662319F0BD
S1131160613001F1089581110BC041E063E082E038
S11311700E949A0C40E064E082E00E949A0C0CC049
S1131180813051F440E063E082E00E949A0C41E037
S113119064E082E00E949A0C41E065E082E00E94F3
S11311A09A0C089581110BC041E065E082E00E9431
S11311B09A0C40E066E082E00E949A0C0CC08130F8
S11311C051F440E065E082E00E949A0C41E066E060
S11311D082E00E949A0C41E064E083E00E949A0C51
S11311E00895882319F0813089F0089540E063E080
S11311F082E00E949A0C40E064E082E00E949A0C33
S113120040E065E082E00E949A0C089540E065E0C9
S113121082E00E949A0C40E066E082E00E949A0C10
S113122040E064E083E00E949A0C089541E062E0AB
S113123083E00E94290C41E063E083E00E94290CD2
S113124041E067E083E00E94290C40E061E080E037
S11312500E94290C40E062E080E00E94290C40E0FA
S113126063E080E00E94290C41E061E080E00E949C
S11312709A0C41E062E080E00E949A0C41E063E055
S113128080E00E949A0C0895EF92FF920F931F93AF
S1131290CF93DF931F92CDB7DEB7009709F490C0C8
S11312A07C018FEFF701808310E087C041E062E0AA
S11312B083E00E949A0C41E063E083E00E949A0C70
S11312C041E067E083E00E949A0C113051F018F07D
S11312D0123071F00BC040E062E083E00E949A0C8F
S11312E005C040E063E083E00E949A0C00E061C026
S11312F040E067E083E00E949A0CF8CF81E08983A4
S1131300013061F018F0023089F017C0AE014F5F70
S11313105F4F61E080E00E940B0D0FC0AE014F5F94
S11313205F4F62E080E00E940B0D07C0AE014F5F8B
S11313305F4F63E080E00E940B0D8981811138C00A
S1131340FFEF26E781E0F15020408040E1F700C044
S11313500000013061F018F0023089F017C0AE01CE
S11313604F5F5F4F61E080E00E940B0D0FC0AE0144
S11313704F5F5F4F62E080E00E940B0D07C0AE013B
S11313804F5F5F4F63E080E00E940B0D8981811104
S11313900FC0202F30E0F901EE0FFF1FE20FF31F03
S11313A0EC59FF4FE10FF11D8081F701808308C0E4
S11313B00F5F033008F4A2CF1F5F133008F476CF19
S11313C00F90DF91CF911F910F91FF90EF900895AF
S11313D041E062E081E00E949A0C8FE99FE001976E
S11313E0F1F700C0000040E062E081E00E949A0C46
S11313F00895CF93C82F40E061E081E00E949A0CE9
S113140040E062E081E00E949A0CC4FB442740F96A
S113141064E080E00E949A0CC5FB442740F965E033
S113142080E00E949A0CC6FB442740F966E080E005
S11314300E949A0C4C2F441F4427441F67E080E00D
S11314400E949A0C0E94E8094C2F417064E080E0ED
S11314500E949A0CC1FB442740F965E080E00E9499
S11314609A0CC2FB442740F966E080E00E949A0C83
S1131470C3FB442740F967E080E00E949A0C0E9475
S1131480E809CF91089541E061E081E00E94290CD0
S113149041E062E081E00E94290C41E064E080E0E8
S11314A00E94290C41E065E080E00E94290C41E0A3
S11314B066E080E00E94290C41E067E080E00E9441
S11314C0290C2FEF83EF91E0215080409040E1F709
S11314D000C0000040E061E081E00E949A0C40E01E
S11314E064E080E00E949A0C41E065E080E00E94A4
S11314F09A0C40E066E080E00E949A0C40E067E0CD
S113150080E00E949A0C0E94E80988E20E94F9098E
S113151020EF2A95F1F78FE00E94F90980EF8A9570
S1131520F1F781E00E94F9098FE39FE10197F1F758
S113153000C0000086E00E94F9098FE39FE1019753
S1131540F1F700C000000895CF93C82F41E061E097
S113155081E00E949A0CC4FB442740F964E080E0D7
S11315600E949A0CC5FB442740F965E080E00E9484
S11315709A0CC6FB442740F966E080E00E949A0C6E
S11315804C2F441F4427441F67E080E00E949A0CBC
S11315900E94E8094C2F417064E080E00E949A0C9C
S11315A0C1FB442740F965E080E00E949A0CC2FB2D
S11315B0442740F966E080E00E949A0CC3FB44276C
S11315C040F967E080E00E949A0C0E94E809CF91FC
S11315D008950F931F93CF938C01C0E003C00E9422
S11315E0A40ACF5FF801EC0FF11D80818111F7CFC0
S11315F0CF911F910F9108955F926F927F928F9276
S11316009F92AF92BF92CF92DF92EF92FF920F938D
S11316101F93CF93DF93CDB7DEB7682EADB6BEB6BA
S1131620C82ED12CE12CF12CA701960177247394B8
S113163009C07394CA01B9012AE030E040E050E0E7
S11316400E9474112A3031054105510590F78DB679
S11316509EB68DB79EB7871991090FB6F8949EBFB1
S11316600FBE8DBF0DB71EB70F5F1F4F512C12C099
S1131670C701B6012AE030E040E050E00E94741156
S1131680F801E50DF11D605D6083C22ED32EE42EBA
S1131690F52E5394C114D104E104F10449F7611007
S11316A009C080E30E94A40A0FB6F8949EBE0FBE40
S11316B08DBE14C0FF24FA94F70C09C0F801EF0D95
S11316C0F11DF7FCFA9580810E94A40AFA94FF2088
S11316D0ACF70FB6F8949EBE0FBE8DBE0FB6F8944D
S11316E0BEBE0FBEADBEDF91CF911F910F91FF9093
S11316F0EF90DF90CF90BF90AF909F908F907F90AE
S11317006F905F90089581E00E94F9098FE39FE153
S11317100197F1F700C000000895813019F082307C
S113172031F009C080E8860F0E94F90904C080ECFA
S1131730860F0E94F90987EC90E00197F1F700C049
S11317400000089541E00E94290C0895442319F0F3
S1131750413029F0089541E00E949A0C089540E038
S11317600E949A0C0895442319F0413029F00895F9
S113177040E00E949A0C089541E00E949A0C08955A
S11317800F9341E065E083E00E94290C0E94FF0D65
S113179003E020E030E040EF50E462E370E080E0FA
S11317A090E00E94120E8AE580936D000F910895D7
S11317B00F93CF9390916D00981721F1C82F682F44
S11317C070E080E090E00E94791020E030E044E393
S11317D053E40E94D80F20E030E040EA50E40E9435
S11317E0071120E030E040EA50E40E946C0F9B01B6
S11317F0AC0103E062E370E080E090E00E94120E2E
S1131800C0936D00CF910F91089597B19F7397B9CD
S113181027B130E4839FC0011124822B87B987E864
S113182086B908958032A0F46115710589F097B1E5
S1131830907E892B87B986B1806486B9349BFECFAC
S113184084B195B1FB019183808386B18F7E86B983
S11318500895442319F04130C9F10895813091F07D
S113186028F08230D9F0833029F108952AB381E039
S113187090E002C0880F991F6A95E2F78095822351
S11318808ABB089527B381E090E002C0880F991FB6
S11318906A95E2F78095822387BB089524B381E09B
S11318A090E002C0880F991F6A95E2F78095822321
S11318B084BB089521B381E090E002C0880F991F92
S11318C06A95E2F78095822381BB0895813089F07F
S11318D028F08230C9F0833011F108952AB381E0F1
S11318E090E002C0880F991F6A95E2F7822B8ABBA9
S11318F0089527B381E090E002C0880F991F6A958C
S1131900E2F7822B87BB089524B381E090E002C004
S1131910880F991F6A95E2F7822B84BB089521B33F
S113192081E090E002C0880F991F6A95E2F7822B4C
S113193081BB0895442319F04130C9F108958130E1
S113194091F028F08230D9F0833029F108952BB337
S113195081E090E002C0880F991F6A95E2F78095B4
S113196082238BBB089528B381E090E002C0880FE6
S1131970991F6A95E2F78095822388BB089525B361
S113198081E090E002C0880F991F6A95E2F7809584
S1131990822385BB089522B381E090E002C0880FC2
S11319A0991F6A95E2F78095822382BB089581305E
S11319B089F028F08230C9F0833011F108952BB3F7
S11319C081E090E002C0880F991F6A95E2F7822BAC
S11319D08BBB089528B381E090E002C0880F991F63
S11319E06A95E2F7822B88BB089525B381E090E0E5
S11319F002C0880F991F6A95E2F7822B85BB089570
S1131A0022B381E090E002C0880F991F6A95E2F743
S1131A10822B82BB08958430C0F56830B0F541153F
S1131A20510599F1813089F028F08230C9F0833072
S1131A3011F1089589B390E002C0959587956A9550
S1131A40E2F78170FA018083089586B390E002C0C2
S1131A50959587956A95E2F78170FA0180830895D8
S1131A6083B390E002C0959587956A95E2F78170FB
S1131A70FA018083089580B390E002C0959587951C
S1131A806A95E2F78170FA01808308951F93CF93DA
S1131A90DF93D82FC62F192F10650E94B90E812FFE
S1131AA00E94DC0E8D2F0E94030F8C2F0E94030FC7
S1131AB00E94D50E8FE19EE40197F1F700C000006B
S1131AC0DF91CF911F9108950F931F93CF93DF93CD
S1131AD061157105D1F08B01D82FC92FC0650E9403
S1131AE0B90E8C2F0E94DC0E8D2F0E94030F0E94D2
S1131AF0C70E8C2F0E94EE0EC8010E940F0F8FE1BB
S1131B009EE40197F1F700C00000DF91CF911F918F
S1131B100F9108951F920F920FB60F9211242F93D5
S1131B203F934F935F936F937F938F939F93AF9361
S1131B30BF93EF93FF93E0915205F09153053097D3
S1131B4009F00995FF91EF91BF91AF919F918F910A
S1131B507F916F915F914F913F912F910F900FBEA5
S1131B600F901F9018951F920F920FB60F92112489
S1131B702F933F934F935F936F937F938F939F9391
S1131B80AF93BF93EF93FF93E0915005F09151050C
S1131B90309709F00995FF91EF91BF91AF919F9113
S1131BA08F917F916F915F914F913F912F910F9002
S1131BB00FBE0F901F90189583B7886083BF83B7BB
S1131BC0806483BF83B7806283BF83B7806183BF30
S1131BD00895CF93C62F282F30E0AFEFB0E00E94D6
S1131BE0961124E630E040E050E00E947411209504
S1131BF02CBF83B7887FC82BC3BFCF9108958FB5FF
S1131C0082608FBD8FB58E7F8FBD8EB580618EBD96
S1131C108EB588608EBD8FB580688FBD8FB58F7B84
S1131C208FBD08958F929F92AF92BF92CF92DF9211
S1131C30EF92FF920F934B015C0169017A0160E915
S1131C4070ED83E090E0A50194010E94741121508D
S1131C50310937BD26BD66B577B56F5F7F4F80E02C
S1131C6090E00E947910A70196010E94071120E0DC
S1131C7030E048EC52E40E94D80F20E030E040E825
S1131C805FE30E946B0F0E944A107BBD6ABD8EB554
S1131C90887F082B0EBD0F91FF90EF90DF90CF90BF
S1131CA0BF90AF909F908F9008951F920F920FB6A0
S1131CB00F9211242F933F934F935F936F937F93CE
S1131CC08F939F93AF93BF93EF93FF93E09154054A
S1131CD0F0915505309709F00995FF91EF91BF9167
S1131CE0AF919F918F917F916F915F914F913F91B0
S1131CF02F910F900FBE0F901F9018951F920F9267
S1131D000FB60F9211242F933F934F935F936F93CA
S1131D107F938F939F93AF93BF93EF93FF93E09140
S1131D205605F0915705309709F00995FF91EF9109
S1131D30BF91AF919F918F917F916F915F914F91DF
S1131D403F912F910F900FBE0F901F9018958CE02C
S1131D5080B981B18D7F81B981B18E7F81B986B718
S1131D608E7F86BF86B78F7B86BF86B7846086BF2B
S1131D70089586B7806286BF86B7806886BF06B638
S1131D8007FEFDCF81B1887F8830E1F7089586B7DB
S1131D90806286BF86B7806886BF06B607FEFDCF21
S1131DA081B1887F8031E1F7089586B7806886BF66
S1131DB086B7806186BF089588237CF0880F83B935
S1131DC086B78F7D86BF86B7806886BF06B607FE56
S1131DD0FDCF81B1887F8831E1F70895882394F09D
S1131DE090E0880F991F816083B986B78F7D86BF85
S1131DF086B7806886BF06B607FEFDCF81B1887FAF
S1131E008034E1F7089583B986B7806886BF06B643
S1131E1007FEFDCF81B1887F8832E1F708959C01E8
S1131E20892B79F086B7806886BF06B607FEFDCF9A
S1131E3091B1987F9835E1F7F90183B180830E94CD
S1131E40D50E08958BB18D7F8BB98AB18F718AB904
S1131E5086E880BD10BC87E689B98AB180618AB9F9
S1131E608AB188608AB908955D9BFECF8CB90895C4
S1131E700F931F93CF938C01C0E003C00E94340FD3
S1131E80CF5FF801EC0FF11D80818111F7CFCF9165
S1131E901F910F910895FC019BB1892F881F8827FA
S1131EA0881F19F08CB1808381E0089591B59F7EDD
S1131EB091BD91B5986091BD91B5987F892B81BDF5
S1131EC0089581B5886181BD11BC08950E9499016E
S1131ED00E94C101FDCF5058BB27AA270E94830F3F
S1131EE00C94CD100E94BF1038F00E94C61020F050
S1131EF039F49F3F19F426F40C94BC100EF4E095C9
S1131F00E7FB0C94B610E92F0E94DE1058F3BA17C1
S1131F10620773078407950720F079F4A6F50C94FB
S1131F2000110EF4E0950B2EBA2FA02D0B01B90170
S1131F3090010C01CA01A0011124FF27591B99F03B
S1131F40593F50F4503E68F11A16F040A22F232F47
S1131F50342F4427585FF3CF469537952795A79597
S1131F60F0405395C9F77EF41F16BA0B620B730B3E
S1131F70840BBAF09150A1F0FF0FBB1F661F771FAF
S1131F80881FC2F70EC0BA0F621F731F841F48F464
S1131F90879577956795B795F7959E3F08F0B0CFED
S1131FA09395880F08F09927EE0F979587950895D4
S1131FB00E94EC0F0C94CD100E94C61058F00E94A1
S1131FC0BF1040F029F45F3F29F00C94B610511172
S1131FD00C9401110C94BC100E94DE1068F3992338
S1131FE0B1F3552391F3951B550BBB27AA27621711
S1131FF07307840738F09F5F5F4F220F331F441F1E
S1132000AA1FA9F335D00E2E3AF0E0E832D0915051
S11320105040E695001CCAF72BD0FE2F29D0660F3E
S1132020771F881FBB1F261737074807AB07B0E881
S113203009F0BB0B802DBF01FF2793585F4F3AF087
S11320409E3F510578F00C94B6100C9401115F3F3B
S1132050E4F3983ED4F3869577956795B795F7950D
S11320609F5FC9F7880F911D9695879597F90895F5
S1132070E1E0660F771F881FBB1F62177307840791
S1132080BA0720F0621B730B840BBA0BEE1F88F7A0
S1132090E09508950E94E61088F09F5798F0B92FB4
S11320A09927B751B0F0E1F0660F771F881F991F89
S11320B01AF0BA95C9F714C0B13091F00E9400111A
S11320C0B1E008950C940011672F782F8827B85F2A
S11320D039F0B93FCCF3869577956795B395D9F7E1
S11320E03EF490958095709561957F4F8F4F9F4FEB
S11320F00895E89409C097FB3EF4909580957095F7
S113210061957F4F8F4F9F4F9923A9F0F92F96E93F
S1132110BB279395F695879577956795B795F111B4
S1132120F8CFFAF4BB0F11F460FF1BC06F5F7F4F51
S11321308F4F9F4F16C0882311F096E911C0772363
S113214021F09EE8872F762F05C0662371F096E86C
S1132150862F70E060E02AF09A95660F771F881F3B
S1132160DAF7880F9695879597F9089597F99F67F9
S113217080E870E060E008959FEF80EC089500240B
S11321800A941616170618060906089500240A94D8
S113219012161306140605060895092E0394000C5E
S11321A011F4882352F0BB0F40F4BF2B11F460FFED
S11321B004C06F5F7F4F8F4F9F4F089557FD905816
S11321C0440F551F59F05F3F71F04795880F97FBF7
S11321D0991F61F09F3F79F08795089512161306B1
S11321E01406551FF2CF4695F1DF08C016161706E0
S11321F01806991FF1CF8695710561050894089515
S1132200E894BB2766277727CB0197F908950E94A6
S11322101A110C94CD100E94BF1038F00E94C61001
S113222020F0952311F00C94B6100C94BC101124DA
S11322300C9401110E94DE1070F3959FC1F3950F69
S113224050E0551F629FF001729FBB27F00DB11D36
S1132250639FAA27F00DB11DAA1F649F6627B00DC6
S1132260A11D661F829F2227B00DA11D621F739FAF
S1132270B00DA11D621F839FA00D611D221F749FBD
S11322803327A00D611D231F849F600D211D822F04
S1132290762F6A2F11249F5750409AF0F1F088232B
S11322A04AF0EE0FFF1FBB1F661F771F881F915058
S11322B05040A9F79E3F510580F00C94B6100C9441
S11322C001115F3FE4F3983ED4F3869577956795C3
S11322D0B795F795E7959F5FC1F7FE2B880F911D82
S11322E09695879597F90895A1E21A2EAA1BBB1B10
S11322F0FD010DC0AA1FBB1FEE1FFF1FA217B307CE
S1132300E407F50720F0A21BB30BE40BF50B661FE3
S1132310771F881F991F1A9469F7609570958095A7
S113232090959B01AC01BD01CF010895A29FB0011E
S1132330B39FC001A39F700D811D1124911DB29FF5
S1112340700D811D1124911D0895F894FFCF96
S113234E01FFFFFF3132333435363738635A414C8F
S113235E41524D2053595354454D00545249474709
S113236E4552454421004C6F67696E205375636373
S113237E65737321004C6F67696E204661696C65E5
S113238E6421004C6F67676564204F757400426C5E
S113239E6F636B65642042792041646D696E0053EE
S11323AE6D61727420486F6D652053797374656D19
S11323BE000D0A417661696C61626C6520436F6D34
S11323CE6D616E64733A0D0A004C315F4F4E2C20D2
S11323DE4C315F4F46462C204C325F4F4E2C204CD6
S11323EE325F4F46462C204C335F4F4E2C204C33DD
S11323FE5F4F46460D0A004C345F4F4E2C204C3432
S113240E5F4F46462C204C355F4F4E2C204C355F8B
S113241E4F46460D0A00444F4F525F4F50454E2CC7
S113242E20444F4F525F434C4F5345202841646D17
S113243E696E204F6E6C79290D0A0044494D5F5820
S113244E58582028302D313030290D0A000D0A2D10
S113245E2D2D205465726D696E616C204D656E75FF
S113246E202D2D2D0D0A00312E2073686F772063D9
S113247E6F6D6D616E64730D0A00322E206164649B
S113248E20757365720D0A00332E2072656D6F769A
S113249E6520757365720D0A00342E207065726D99
S11324AE697420757365720D0A00352E20626C6F87
S11324BE636B20757365720D0A00362E206C69737A
S11324CE742075736572730D0A00372E206C6F6756
S11324DE6F75740D0A00434D443E20000D0A506181
S11324EE73733A20000D0A4C6F67696E205375633F
S11324FE63657373212000526F6C653A2041646DDD
S113250E696E0D0A00526F6C653A20557365720D33
S113251E0A000D0A4C6F67696E204661696C65642A
S113252E2E2049443A20000D0A4572726F723A20E9
S113253E494420616C7265616479206578697374AD
S113254E73210D0A000D0A456E746572204E65776F
S113255E2050617373776F72642028342064696726
S113256E697473293A20000D0A557365722041640B
S113257E646564205375636365737366756C6C79F7
S113258E2E0D0A000D0A557365722052656D6F7615
S113259E6564205375636365737366756C6C792E0D
S11325AE0D0A0073686F7720636F6D6D616E6473CF
S11325BE006C6F676F75740037000D0A4C6F676798
S11325CE6564204F75742E0D0A49443A20006164E7
S11325DE642075736572000D0A456E746572204E23
S11325EE657720557365722049443A200072656DF3
S11325FE6F76652075736572000D0A456E7465728B
S113260E205573657220494420746F2072656D6F76
S113261E76653A20007065726D6974207573657203
S113262E000D0A4B657970616420757365722050D4
S113263E45524D49545445442E0D0A00626C6F6345
S113264E6B2075736572000D0A4B65797061642099
S113265E7573657220424C4F434B45442E0D0A0050
S113266E6C6973742075736572730036000D0A2DD0
S113267E2D2D2052656769737465726564205573D8
S113268E657273202D2D2D0D0A00557365723A2037
S113269E004E6F20757365727320666F756E642EAF
S11326AE0D0A002D2D2D2D2D2D2D2D2D2D2D2D2DB8
S11326BE2D2D2D2D2D2D2D2D2D2D2D0D0A004C3185
S11326CE5F4F4E004C315F4F4646004C325F4F4ECB
S11326DE004C325F4F4646004C335F4F4E004C3336
S11326EE5F4F4646004C345F4F4E004C345F4F46AE
S11326FE46004C355F4F4E004C355F4F4646004406
S113270E4F4F525F4F50454E000D0A416363657340
S113271E732044656E6965643A2041646D696E2068
S113272E4F6E6C792E0D0A00444F4F525F434C4F3F
S113273E53450044494D5F000D0A536D6172742078
S113274E486F6D652053797374656D2052656164AD
S113275E792E0D0A00506C6561736520656E746583
S113276E722049443A2000312D53746174757300FC
S113277E322D4F7074202020332D4C6F676F75747B
S113278E0054656D703A0043202041433A004F4E89
S113279E200020202020202020202020332D4261C4
S11327AE636B004320003A20322D536574003A20A7
S11327BE322D4F6E2020332D4F666600312D42612F
S11327CE636B202000323A3020333A323520343ACB
S11327DE353000353A373520363A31303020312D08
S11327EE526574004C31004C32004C33004C3400B2
S11327FE4C350044696D00040507050A050D0510E6
S107280E05130500A5
S9030000FC
